{
  "contractName": "Funding",
  "abi": [
    {
      "constant": true,
      "inputs": [
        {
          "name": "",
          "type": "uint256"
        }
      ],
      "name": "IsPatientConfigured",
      "outputs": [
        {
          "name": "",
          "type": "bool"
        }
      ],
      "payable": false,
      "stateMutability": "view",
      "type": "function"
    },
    {
      "constant": true,
      "inputs": [
        {
          "name": "",
          "type": "uint256"
        }
      ],
      "name": "patients",
      "outputs": [
        {
          "name": "id",
          "type": "uint256"
        },
        {
          "name": "fullName",
          "type": "string"
        },
        {
          "name": "key",
          "type": "string"
        }
      ],
      "payable": false,
      "stateMutability": "view",
      "type": "function"
    },
    {
      "constant": false,
      "inputs": [
        {
          "name": "input1",
          "type": "uint256"
        },
        {
          "name": "input2",
          "type": "uint256"
        }
      ],
      "name": "sum",
      "outputs": [
        {
          "name": "",
          "type": "uint256"
        }
      ],
      "payable": false,
      "stateMutability": "nonpayable",
      "type": "function"
    },
    {
      "constant": false,
      "inputs": [
        {
          "name": "id",
          "type": "uint256"
        },
        {
          "name": "fullName",
          "type": "string"
        },
        {
          "name": "key",
          "type": "string"
        }
      ],
      "name": "setPatientData",
      "outputs": [
        {
          "name": "",
          "type": "bool"
        }
      ],
      "payable": false,
      "stateMutability": "nonpayable",
      "type": "function"
    },
    {
      "constant": false,
      "inputs": [
        {
          "name": "patientId",
          "type": "uint256"
        },
        {
          "name": "documentId",
          "type": "uint256"
        },
        {
          "name": "documentName",
          "type": "string"
        },
        {
          "name": "documentType",
          "type": "string"
        },
        {
          "name": "accessKey",
          "type": "string"
        }
      ],
      "name": "addPatientDocuments",
      "outputs": [
        {
          "name": "",
          "type": "bool"
        }
      ],
      "payable": false,
      "stateMutability": "nonpayable",
      "type": "function"
    },
    {
      "constant": false,
      "inputs": [
        {
          "name": "patientId",
          "type": "uint256"
        },
        {
          "name": "doctorId",
          "type": "uint256"
        },
        {
          "name": "documentId",
          "type": "uint256"
        },
        {
          "name": "accessKey",
          "type": "string"
        }
      ],
      "name": "setDocumentAccess",
      "outputs": [
        {
          "name": "",
          "type": "bool"
        }
      ],
      "payable": false,
      "stateMutability": "nonpayable",
      "type": "function"
    },
    {
      "constant": false,
      "inputs": [
        {
          "name": "patientId",
          "type": "uint256"
        },
        {
          "name": "doctorId",
          "type": "uint256"
        }
      ],
      "name": "getPatient",
      "outputs": [
        {
          "name": "",
          "type": "string[]"
        }
      ],
      "payable": false,
      "stateMutability": "nonpayable",
      "type": "function"
    }
  ],
  "bytecode": "0x608060405234801561001057600080fd5b50610edb806100206000396000f300608060405260043610610083576000357c0100000000000000000000000000000000000000000000000000000000900463ffffffff1680634b8bf28c1461008857806385b2ffe4146100c55780638660a4bc1461010257806393119a831461013f578063a98e71a01461017e578063c49213ed146101bb578063cad0899b146101f8575b600080fd5b34801561009457600080fd5b506100af60048036036100aa9190810190610a51565b610235565b6040516100bc9190610d2a565b60405180910390f35b3480156100d157600080fd5b506100ec60048036036100e79190810190610a28565b6102aa565b6040516100f99190610d2a565b60405180910390f35b34801561010e57600080fd5b5061012960048036036101249190810190610b0c565b6102ca565b6040516101369190610d2a565b60405180910390f35b34801561014b57600080fd5b5061016660048036036101619190810190610a28565b610444565b60405161017593929190610d60565b60405180910390f35b34801561018a57600080fd5b506101a560048036036101a09190810190610bcb565b61059e565b6040516101b29190610d2a565b60405180910390f35b3480156101c757600080fd5b506101e260048036036101dd9190810190610ad0565b6106a8565b6040516101ef9190610d08565b60405180910390f35b34801561020457600080fd5b5061021f600480360361021a9190810190610ad0565b610885565b60405161022c9190610d45565b60405180910390f35b60008084816000018190555083816001019080519060200190610259929190610892565b5082816002019080519060200190610272929190610892565b50600180600087815260200190815260200160002060006101000a81548160ff02191690831515021790555060019150509392505050565b60016020528060005260406000206000915054906101000a900460ff1681565b6000806000801515600160008a815260200190815260200160002060009054906101000a900460ff16151514156103045760009250610439565b600080898152602001908152602001600020915087816000018190555086816001018190555085816003019080519060200190610342929190610892565b508481600201908051906020019061035b929190610892565b5083816004019080519060200190610374929190610892565b508160030181908060018154018082558091505090600182039060005260206000209060050201600090919290919091506000820154816000015560018201548160010155600282018160020190805460018160011615610100020316600290046103e0929190610912565b5060038201816003019080546001816001161561010002031660029004610408929190610912565b5060048201816004019080546001816001161561010002031660029004610430929190610912565b50505050600192505b505095945050505050565b6000602052806000526040600020600091509050806000015490806001018054600181600116156101000203166002900480601f0160208091040260200160405190810160405280929190818152602001828054600181600116156101000203166002900480156104f65780601f106104cb576101008083540402835291602001916104f6565b820191906000526020600020905b8154815290600101906020018083116104d957829003601f168201915b505050505090806002018054600181600116156101000203166002900480601f0160208091040260200160405190810160405280929190818152602001828054600181600116156101000203166002900480156105945780601f1061056957610100808354040283529160200191610594565b820191906000526020600020905b81548152906001019060200180831161057757829003601f168201915b5050505050905083565b60008060008015156001600089815260200190815260200160002060009054906101000a900460ff16151514156105d8576000925061069e565b60008088815260200190815260200160002091508681600001819055508581600101819055508481600201819055508381600301908051906020019061061f929190610892565b5081600401819080600181540180825580915050906001820390600052602060002090600402016000909192909190915060008201548160000155600182015481600101556002820154816002015560038201816003019080546001816001161561010002031660029004610695929190610912565b50505050600192505b5050949350505050565b60606000600181600001819055506040805190810160405280600581526020017f536172616e000000000000000000000000000000000000000000000000000000815250816001019080519060200190610703929190610892565b508060050160008481526020019081526020016000208060018154018082558091505090600182039060005260206000200160006040805190810160405280600a81526020017f446f63746f72314b65790000000000000000000000000000000000000000000081525090919091509080519060200190610785929190610892565b5050806005016000848152602001908152602001600020805480602002602001604051908101604052809291908181526020016000905b82821015610878578382906000526020600020018054600181600116156101000203166002900480601f0160208091040260200160405190810160405280929190818152602001828054600181600116156101000203166002900480156108645780601f1061083957610100808354040283529160200191610864565b820191906000526020600020905b81548152906001019060200180831161084757829003601f168201915b5050505050815260200190600101906107bc565b5050505091505092915050565b6000818301905092915050565b828054600181600116156101000203166002900490600052602060002090601f016020900481019282601f106108d357805160ff1916838001178555610901565b82800160010185558215610901579182015b828111156109005782518255916020019190600101906108e5565b5b50905061090e9190610999565b5090565b828054600181600116156101000203166002900490600052602060002090601f016020900481019282601f1061094b5780548555610988565b8280016001018555821561098857600052602060002091601f016020900482015b8281111561098757825482559160010191906001019061096c565b5b5090506109959190610999565b5090565b6109bb91905b808211156109b757600081600090555060010161099f565b5090565b90565b600082601f83011215156109d157600080fd5b81356109e46109df82610dd2565b610da5565b91508082526020830160208301858383011115610a0057600080fd5b610a0b838284610e4e565b50505092915050565b6000610a208235610e44565b905092915050565b600060208284031215610a3a57600080fd5b6000610a4884828501610a14565b91505092915050565b600080600060608486031215610a6657600080fd5b6000610a7486828701610a14565b935050602084013567ffffffffffffffff811115610a9157600080fd5b610a9d868287016109be565b925050604084013567ffffffffffffffff811115610aba57600080fd5b610ac6868287016109be565b9150509250925092565b60008060408385031215610ae357600080fd5b6000610af185828601610a14565b9250506020610b0285828601610a14565b9150509250929050565b600080600080600060a08688031215610b2457600080fd5b6000610b3288828901610a14565b9550506020610b4388828901610a14565b945050604086013567ffffffffffffffff811115610b6057600080fd5b610b6c888289016109be565b935050606086013567ffffffffffffffff811115610b8957600080fd5b610b95888289016109be565b925050608086013567ffffffffffffffff811115610bb257600080fd5b610bbe888289016109be565b9150509295509295909350565b60008060008060808587031215610be157600080fd5b6000610bef87828801610a14565b9450506020610c0087828801610a14565b9350506040610c1187828801610a14565b925050606085013567ffffffffffffffff811115610c2e57600080fd5b610c3a878288016109be565b91505092959194509250565b6000610c5182610e0b565b80845260208401935083602082028501610c6a85610dfe565b60005b84811015610ca3578383038852610c85838351610cc3565b9250610c9082610e21565b9150602088019750600181019050610c6d565b508196508694505050505092915050565b610cbd81610e2e565b82525050565b6000610cce82610e16565b808452610ce2816020860160208601610e5d565b610ceb81610e90565b602085010191505092915050565b610d0281610e3a565b82525050565b60006020820190508181036000830152610d228184610c46565b905092915050565b6000602082019050610d3f6000830184610cb4565b92915050565b6000602082019050610d5a6000830184610cf9565b92915050565b6000606082019050610d756000830186610cf9565b8181036020830152610d878185610cc3565b90508181036040830152610d9b8184610cc3565b9050949350505050565b6000604051905081810181811067ffffffffffffffff82111715610dc857600080fd5b8060405250919050565b600067ffffffffffffffff821115610de957600080fd5b601f19601f8301169050602081019050919050565b6000602082019050919050565b600081519050919050565b600081519050919050565b6000602082019050919050565b60008115159050919050565b6000819050919050565b6000819050919050565b82818337600083830152505050565b60005b83811015610e7b578082015181840152602081019050610e60565b83811115610e8a576000848401525b50505050565b6000601f19601f83011690509190505600a265627a7a72305820b22e1d383b32d413797bd7d3db2d42a7b66eb988b53eabdd8b53f8c376fd67de6c6578706572696d656e74616cf50037",
  "source": "pragma solidity ^0.4.24;\r\npragma experimental ABIEncoderV2;\r\n\r\ncontract Funding {\r\n    function sum(uint input1, uint input2) public returns (uint) {\r\n        return input1 + input2;\r\n    }\r\n\r\n    struct patient{\r\n        uint id;\r\n        string fullName;\r\n        string key; //The unique key for the user\r\n        PatientDocuments[] Documents;\r\n        DocumentAccess[] DocumentAccessRights;\r\n        mapping(uint => string[]) DoctorAccess;\r\n    }\r\n\r\n    struct PatientDocuments {\r\n        uint PatientId;\r\n        uint DocumentId;\r\n        string DocumentType;\r\n        string DocumentName;\r\n        string DocumentKey;\r\n    }\r\n\r\n    struct DocumentAccess {\r\n        uint PatientId;\r\n        uint DoctorId;\r\n        uint DocumentId;\r\n        string AccessKey;\r\n    }\r\n\r\n    mapping(uint => patient) public patients;\r\n    mapping(uint => bool) public IsPatientConfigured;\r\n\r\n    function setPatientData(uint id,string fullName,string key) public returns(bool) {\r\n        patient profile;\r\n        profile.id = id;\r\n        profile.fullName = fullName;\r\n        profile.key = key;\r\n        IsPatientConfigured[id] = true; //once basic details are set, say configured as true.\r\n        return true;\r\n    }\r\n\r\n    function addPatientDocuments(uint patientId, uint documentId, string documentName, string documentType, string accessKey) returns (bool) {\r\n        if(IsPatientConfigured[patientId] == false){\r\n            return false;\r\n        }\r\n        patient profile = patients[patientId];\r\n        PatientDocuments patientDocs;\r\n        patientDocs.PatientId = patientId;\r\n        patientDocs.DocumentId = documentId;\r\n        patientDocs.DocumentName = documentName;\r\n        patientDocs.DocumentType = documentType;\r\n        patientDocs.DocumentKey = accessKey;\r\n        profile.Documents.push(patientDocs);\r\n        return true;\r\n    }\r\n\r\n    function setDocumentAccess(uint patientId, uint doctorId, uint documentId, string accessKey) returns (bool) {\r\n        if(IsPatientConfigured[patientId] == false){\r\n            return false;\r\n        }\r\n        patient profile = patients[patientId];\r\n        DocumentAccess docRights;\r\n        docRights.PatientId = patientId;\r\n        docRights.DoctorId = doctorId;\r\n        docRights.DocumentId = documentId;\r\n        docRights.AccessKey = accessKey;\r\n        profile.DocumentAccessRights.push(docRights);\r\n        return true;\r\n    }\r\n\r\n    function getPatient(uint patientId, uint doctorId) public returns (string[]) {\r\n        patient p;\r\n        p.id = 1;\r\n        p.fullName=\"Saran\";\r\n        p.DoctorAccess[doctorId].push(\"Doctor1Key\");\r\n        return p.DoctorAccess[doctorId];\r\n    }\r\n}",
  "sourcePath": "H:\\ethereum\\PM\\contracts\\Funding.sol",
  "compiler": {
    "name": "solc",
    "version": "0.4.24+commit.e67f0147.Emscripten.clang"
  },
  "schemaVersion": "2.0.1",
  "updatedAt": "2018-10-21T10:56:12.907Z"
}