{
  "contractName": "PatientProfileRelationManager",
  "abi": [
    {
      "constant": false,
      "inputs": [
        {
          "name": "patientId",
          "type": "uint256"
        }
      ],
      "name": "getPatient",
      "outputs": [
        {
          "components": [
            {
              "name": "Id",
              "type": "uint256"
            },
            {
              "name": "Address",
              "type": "string"
            },
            {
              "name": "FullName",
              "type": "string"
            }
          ],
          "name": "",
          "type": "tuple"
        }
      ],
      "payable": false,
      "stateMutability": "nonpayable",
      "type": "function"
    }
  ],
  "bytecode": "0x608060405234801561001057600080fd5b506102d2806100206000396000f300608060405260043610610041576000357c0100000000000000000000000000000000000000000000000000000000900463ffffffff1680637d3a679614610046575b600080fd5b34801561005257600080fd5b5061006d6004803603610068919081019061014e565b610083565b60405161007a9190610213565b60405180910390f35b61008b610118565b6060604051908101604052808381526020016040805190810160405280601181526020017f307831323331323331323331323132333100000000000000000000000000000081525081526020016040805190810160405280600581526020017f536172616e0000000000000000000000000000000000000000000000000000008152508152509050919050565b6060604051908101604052806000815260200160608152602001606081525090565b6000610146823561024a565b905092915050565b60006020828403121561016057600080fd5b600061016e8482850161013a565b91505092915050565b600061018282610235565b808452610196816020860160208601610254565b61019f81610287565b602085010191505092915050565b60006060830160008301516101c56000860182610204565b50602083015184820360208601526101dd8282610177565b915050604083015184820360408601526101f78282610177565b9150508091505092915050565b61020d81610240565b82525050565b6000602082019050818103600083015261022d81846101ad565b905092915050565b600081519050919050565b6000819050919050565b6000819050919050565b60005b83811015610272578082015181840152602081019050610257565b83811115610281576000848401525b50505050565b6000601f19601f83011690509190505600a265627a7a72305820c8c9524d2f955f81f42808cb2b83499306ad770aa128ec4691dc4e4ee113959a6c6578706572696d656e74616cf50037",
  "source": "pragma solidity ^0.4.17;\r\npragma experimental ABIEncoderV2;\r\n\r\ncontract PatientProfileRelationManager {\r\n\r\n    struct Patient {\r\n        uint Id;\r\n        string Address;\r\n        string FullName;\r\n    }\r\n\r\n    struct PatientDoctors {\r\n        uint PatientId;\r\n        uint[] DoctorIds;\r\n    }\r\n\r\n    struct PatientDocuments { \r\n        uint PatientId;\r\n        mapping(uint => string) DocumentMapping;\r\n    }\r\n\r\n\r\n    function getPatient(uint patientId) public returns (Patient) {\r\n        return Patient(patientId,'0x123123123121231','Saran');\r\n    }\r\n}",
  "sourcePath": "H:\\ethereum\\PM\\contracts\\PatientProfile.sol",
  "compiler": {
    "name": "solc",
    "version": "0.4.24+commit.e67f0147.Emscripten.clang"
  },
  "schemaVersion": "2.0.1",
  "updatedAt": "2018-10-20T13:41:21.027Z"
}