{
  "contractName": "PatientProfile",
  "abi": [
    {
      "constant": true,
      "inputs": [
        {
          "name": "",
          "type": "uint256"
        }
      ],
      "name": "patients",
      "outputs": [
        {
          "name": "Id",
          "type": "uint256"
        },
        {
          "name": "Address",
          "type": "string"
        },
        {
          "name": "FullName",
          "type": "string"
        }
      ],
      "payable": false,
      "stateMutability": "view",
      "type": "function"
    },
    {
      "constant": false,
      "inputs": [
        {
          "name": "patientId",
          "type": "uint256"
        }
      ],
      "name": "getPatient",
      "outputs": [
        {
          "components": [
            {
              "name": "Id",
              "type": "uint256"
            },
            {
              "name": "Address",
              "type": "string"
            },
            {
              "name": "FullName",
              "type": "string"
            }
          ],
          "name": "",
          "type": "tuple"
        }
      ],
      "payable": false,
      "stateMutability": "nonpayable",
      "type": "function"
    }
  ],
  "bytecode": "0x6080604052600060015534801561001557600080fd5b50610769806100256000396000f30060806040526004361061004c576000357c0100000000000000000000000000000000000000000000000000000000900463ffffffff1680637d3a67961461005157806393119a831461008e575b600080fd5b34801561005d57600080fd5b50610078600480360361007391908101906105a0565b6100cd565b6040516100859190610665565b60405180910390f35b34801561009a57600080fd5b506100b560048036036100b091908101906105a0565b61035c565b6040516100c493929190610687565b60405180910390f35b6100d56104c5565b60006060604051908101604052808481526020016040805190810160405280601181526020017f307831323331323331323331323132333100000000000000000000000000000081525081526020016040805190810160405280600581526020017f536172616e000000000000000000000000000000000000000000000000000000815250815250908060018154018082558091505090600182039060005260206000209060030201600090919290919091506000820151816000015560208201518160010190805190602001906101ae9291906104e7565b5060408201518160020190805190602001906101cb9291906104e7565b505050506001805401600181905550600060018054038154811015156101ed57fe5b90600052602060002090600302016060604051908101604052908160008201548152602001600182018054600181600116156101000203166002900480601f0160208091040260200160405190810160405280929190818152602001828054600181600116156101000203166002900480156102aa5780601f1061027f576101008083540402835291602001916102aa565b820191906000526020600020905b81548152906001019060200180831161028d57829003601f168201915b50505050508152602001600282018054600181600116156101000203166002900480601f01602080910402602001604051908101604052809291908181526020018280546001816001161561010002031660029004801561034c5780601f106103215761010080835404028352916020019161034c565b820191906000526020600020905b81548152906001019060200180831161032f57829003601f168201915b5050505050815250509050919050565b60008181548110151561036b57fe5b9060005260206000209060030201600091509050806000015490806001018054600181600116156101000203166002900480601f01602080910402602001604051908101604052809291908181526020018280546001816001161561010002031660029004801561041d5780601f106103f25761010080835404028352916020019161041d565b820191906000526020600020905b81548152906001019060200180831161040057829003601f168201915b505050505090806002018054600181600116156101000203166002900480601f0160208091040260200160405190810160405280929190818152602001828054600181600116156101000203166002900480156104bb5780601f10610490576101008083540402835291602001916104bb565b820191906000526020600020905b81548152906001019060200180831161049e57829003601f168201915b5050505050905083565b6060604051908101604052806000815260200160608152602001606081525090565b828054600181600116156101000203166002900490600052602060002090601f016020900481019282601f1061052857805160ff1916838001178555610556565b82800160010185558215610556579182015b8281111561055557825182559160200191906001019061053a565b5b5090506105639190610567565b5090565b61058991905b8082111561058557600081600090555060010161056d565b5090565b90565b600061059882356106e1565b905092915050565b6000602082840312156105b257600080fd5b60006105c08482850161058c565b91505092915050565b60006105d4826106cc565b8084526105e88160208601602086016106eb565b6105f18161071e565b602085010191505092915050565b60006060830160008301516106176000860182610656565b506020830151848203602086015261062f82826105c9565b9150506040830151848203604086015261064982826105c9565b9150508091505092915050565b61065f816106d7565b82525050565b6000602082019050818103600083015261067f81846105ff565b905092915050565b600060608201905061069c6000830186610656565b81810360208301526106ae81856105c9565b905081810360408301526106c281846105c9565b9050949350505050565b600081519050919050565b6000819050919050565b6000819050919050565b60005b838110156107095780820151818401526020810190506106ee565b83811115610718576000848401525b50505050565b6000601f19601f83011690509190505600a265627a7a723058203ff1745270d67b0200cf203a765e9f31e7fcab5d3f61c417e637d5fecb9880356c6578706572696d656e74616cf50037",
  "source": "pragma solidity ^0.4.17;\r\npragma experimental ABIEncoderV2;\r\n\r\ncontract PatientProfile {\r\n\r\n    struct Patient {\r\n        uint Id;\r\n        string Address;\r\n        string FullName;\r\n    }\r\n\r\n    struct PatientDoctors {\r\n        uint PatientId;\r\n        uint[] DoctorIds;\r\n    }\r\n\r\n    struct PatientDocuments { \r\n        uint PatientId;\r\n        mapping(uint => string) DocumentMapping;\r\n    }\r\n\r\n    Patient[] public patients;\r\n    uint index=0;\r\n\r\n    function getPatient(uint patientId) public returns(Patient) {\r\n        patients.push(Patient(patientId,\"0x123123123121231\",\"Saran\"));\r\n        index = index + 1;\r\n        return patients[index-1];\r\n    }\r\n}",
  "sourcePath": "H:\\ethereum\\PM\\contracts\\PatientProfile.sol",
  "compiler": {
    "name": "solc",
    "version": "0.4.24+commit.e67f0147.Emscripten.clang"
  },
  "schemaVersion": "2.0.1",
  "updatedAt": "2018-10-21T10:56:12.903Z"
}